{
  "contractName": "Payment",
  "abi": [
    {
      "inputs": [
        {
          "internalType": "address payable",
          "name": "_wallet",
          "type": "address"
        },
        {
          "internalType": "uint256",
          "name": "_price",
          "type": "uint256"
        }
      ],
      "payable": false,
      "stateMutability": "nonpayable",
      "type": "constructor"
    },
    {
      "anonymous": false,
      "inputs": [
        {
          "indexed": false,
          "internalType": "uint256",
          "name": "location",
          "type": "uint256"
        },
        {
          "indexed": false,
          "internalType": "address",
          "name": "buyer",
          "type": "address"
        },
        {
          "indexed": false,
          "internalType": "uint256",
          "name": "value",
          "type": "uint256"
        }
      ],
      "name": "Donated",
      "type": "event"
    },
    {
      "anonymous": false,
      "inputs": [
        {
          "indexed": true,
          "internalType": "address",
          "name": "previousOwner",
          "type": "address"
        },
        {
          "indexed": true,
          "internalType": "address",
          "name": "newOwner",
          "type": "address"
        }
      ],
      "name": "OwnershipTransferred",
      "type": "event"
    },
    {
      "constant": true,
      "inputs": [
        {
          "internalType": "address",
          "name": "",
          "type": "address"
        }
      ],
      "name": "Donations",
      "outputs": [
        {
          "internalType": "uint256",
          "name": "",
          "type": "uint256"
        }
      ],
      "payable": false,
      "stateMutability": "view",
      "type": "function"
    },
    {
      "constant": true,
      "inputs": [
        {
          "internalType": "uint256",
          "name": "",
          "type": "uint256"
        }
      ],
      "name": "ValidLocations",
      "outputs": [
        {
          "internalType": "bool",
          "name": "",
          "type": "bool"
        }
      ],
      "payable": false,
      "stateMutability": "view",
      "type": "function"
    },
    {
      "constant": true,
      "inputs": [],
      "name": "isOwner",
      "outputs": [
        {
          "internalType": "bool",
          "name": "",
          "type": "bool"
        }
      ],
      "payable": false,
      "stateMutability": "view",
      "type": "function"
    },
    {
      "constant": true,
      "inputs": [],
      "name": "minimumWei",
      "outputs": [
        {
          "internalType": "uint256",
          "name": "",
          "type": "uint256"
        }
      ],
      "payable": false,
      "stateMutability": "view",
      "type": "function"
    },
    {
      "constant": true,
      "inputs": [],
      "name": "owner",
      "outputs": [
        {
          "internalType": "address",
          "name": "",
          "type": "address"
        }
      ],
      "payable": false,
      "stateMutability": "view",
      "type": "function"
    },
    {
      "constant": false,
      "inputs": [],
      "name": "renounceOwnership",
      "outputs": [],
      "payable": false,
      "stateMutability": "nonpayable",
      "type": "function"
    },
    {
      "constant": false,
      "inputs": [
        {
          "internalType": "address",
          "name": "newOwner",
          "type": "address"
        }
      ],
      "name": "transferOwnership",
      "outputs": [],
      "payable": false,
      "stateMutability": "nonpayable",
      "type": "function"
    },
    {
      "constant": false,
      "inputs": [
        {
          "internalType": "uint256",
          "name": "_location",
          "type": "uint256"
        }
      ],
      "name": "Purchase",
      "outputs": [],
      "payable": true,
      "stateMutability": "payable",
      "type": "function"
    },
    {
      "constant": false,
      "inputs": [
        {
          "internalType": "address payable",
          "name": "w",
          "type": "address"
        }
      ],
      "name": "setWallet",
      "outputs": [],
      "payable": false,
      "stateMutability": "nonpayable",
      "type": "function"
    },
    {
      "constant": false,
      "inputs": [
        {
          "internalType": "uint256",
          "name": "_value",
          "type": "uint256"
        }
      ],
      "name": "setMiniumum",
      "outputs": [],
      "payable": false,
      "stateMutability": "nonpayable",
      "type": "function"
    }
  ],
  "bytecode": "0x608060405234801561001057600080fd5b50604051610b00380380610b008339818101604052604081101561003357600080fd5b810190808051906020019092919080519060200190929190505050600061005e61014460201b60201c565b9050806000806101000a81548173ffffffffffffffffffffffffffffffffffffffff021916908373ffffffffffffffffffffffffffffffffffffffff1602179055508073ffffffffffffffffffffffffffffffffffffffff16600073ffffffffffffffffffffffffffffffffffffffff167f8be0079c531659141344cd1fd0a4f28419497f9722a3daafe3b4186f6b6457e060405160405180910390a35081600160006101000a81548173ffffffffffffffffffffffffffffffffffffffff021916908373ffffffffffffffffffffffffffffffffffffffff160217905550505061014c565b600033905090565b6109a58061015b6000396000f3fe6080604052600436106100915760003560e01c8063deaa59df11610059578063deaa59df146101eb578063e0e267e51461023c578063e2aeb2ae14610267578063e324ca9014610295578063f2fde38b146102d057610091565b8063715018a6146100965780638da5cb5b146100ad5780638f32d59b14610104578063bad57d1314610133578063c87d466314610198575b600080fd5b3480156100a257600080fd5b506100ab610321565b005b3480156100b957600080fd5b506100c261045a565b604051808273ffffffffffffffffffffffffffffffffffffffff1673ffffffffffffffffffffffffffffffffffffffff16815260200191505060405180910390f35b34801561011057600080fd5b50610119610483565b604051808215151515815260200191505060405180910390f35b34801561013f57600080fd5b506101826004803603602081101561015657600080fd5b81019080803573ffffffffffffffffffffffffffffffffffffffff1690602001909291905050506104e1565b6040518082815260200191505060405180910390f35b3480156101a457600080fd5b506101d1600480360360208110156101bb57600080fd5b81019080803590602001909291905050506104f9565b604051808215151515815260200191505060405180910390f35b3480156101f757600080fd5b5061023a6004803603602081101561020e57600080fd5b81019080803573ffffffffffffffffffffffffffffffffffffffff169060200190929190505050610519565b005b34801561024857600080fd5b506102516105d7565b6040518082815260200191505060405180910390f35b6102936004803603602081101561027d57600080fd5b81019080803590602001909291905050506105dd565b005b3480156102a157600080fd5b506102ce600480360360208110156102b857600080fd5b81019080803590602001909291905050506106f4565b005b3480156102dc57600080fd5b5061031f600480360360208110156102f357600080fd5b81019080803573ffffffffffffffffffffffffffffffffffffffff169060200190929190505050610778565b005b610329610483565b61039b576040517f08c379a00000000000000000000000000000000000000000000000000000000081526004018080602001828103825260208152602001807f4f776e61626c653a2063616c6c6572206973206e6f7420746865206f776e657281525060200191505060405180910390fd5b600073ffffffffffffffffffffffffffffffffffffffff166000809054906101000a900473ffffffffffffffffffffffffffffffffffffffff1673ffffffffffffffffffffffffffffffffffffffff167f8be0079c531659141344cd1fd0a4f28419497f9722a3daafe3b4186f6b6457e060405160405180910390a360008060006101000a81548173ffffffffffffffffffffffffffffffffffffffff021916908373ffffffffffffffffffffffffffffffffffffffff160217905550565b60008060009054906101000a900473ffffffffffffffffffffffffffffffffffffffff16905090565b60008060009054906101000a900473ffffffffffffffffffffffffffffffffffffffff1673ffffffffffffffffffffffffffffffffffffffff166104c56107fe565b73ffffffffffffffffffffffffffffffffffffffff1614905090565b60046020528060005260406000206000915090505481565b60036020528060005260406000206000915054906101000a900460ff1681565b610521610483565b610593576040517f08c379a00000000000000000000000000000000000000000000000000000000081526004018080602001828103825260208152602001807f4f776e61626c653a2063616c6c6572206973206e6f7420746865206f776e657281525060200191505060405180910390fd5b80600160006101000a81548173ffffffffffffffffffffffffffffffffffffffff021916908373ffffffffffffffffffffffffffffffffffffffff16021790555050565b60025481565b60025434116105eb57600080fd5b6003600082815260200190815260200160002060009054906101000a900460ff1661061557600080fd5b7f1b606d34afacd55873aba0fd274841a10c63e18455f2dffebad2fc60a36b2c83813334604051808481526020018373ffffffffffffffffffffffffffffffffffffffff1673ffffffffffffffffffffffffffffffffffffffff168152602001828152602001935050505060405180910390a1600160009054906101000a900473ffffffffffffffffffffffffffffffffffffffff1673ffffffffffffffffffffffffffffffffffffffff166108fc349081150290604051600060405180830381858888f193505050501580156106f0573d6000803e3d6000fd5b5050565b6106fc610483565b61076e576040517f08c379a00000000000000000000000000000000000000000000000000000000081526004018080602001828103825260208152602001807f4f776e61626c653a2063616c6c6572206973206e6f7420746865206f776e657281525060200191505060405180910390fd5b8060028190555050565b610780610483565b6107f2576040517f08c379a00000000000000000000000000000000000000000000000000000000081526004018080602001828103825260208152602001807f4f776e61626c653a2063616c6c6572206973206e6f7420746865206f776e657281525060200191505060405180910390fd5b6107fb81610806565b50565b600033905090565b600073ffffffffffffffffffffffffffffffffffffffff168173ffffffffffffffffffffffffffffffffffffffff16141561088c576040517f08c379a000000000000000000000000000000000000000000000000000000000815260040180806020018281038252602681526020018061094b6026913960400191505060405180910390fd5b8073ffffffffffffffffffffffffffffffffffffffff166000809054906101000a900473ffffffffffffffffffffffffffffffffffffffff1673ffffffffffffffffffffffffffffffffffffffff167f8be0079c531659141344cd1fd0a4f28419497f9722a3daafe3b4186f6b6457e060405160405180910390a3806000806101000a81548173ffffffffffffffffffffffffffffffffffffffff021916908373ffffffffffffffffffffffffffffffffffffffff1602179055505056fe4f776e61626c653a206e6577206f776e657220697320746865207a65726f2061646472657373a265627a7a72315820ba46b908dddb4b88d2c8f4ea40765d6a0011727f02cfe6e475b0a1bf06097c3964736f6c634300050d0032",
  "source": "pragma solidity ^0.5.0;\nimport \"@openzeppelin/contracts/ownership/Ownable.sol\";\n\ncontract Payment is Ownable{\n    event Donated(uint location,address buyer,uint value);\n    address payable Wallet;\n    uint public minimumWei;\n    mapping(uint=>bool) public ValidLocations;\n    mapping(address=>uint) public Donations;\n\n    constructor(address payable _wallet,uint _price) public{\n        Wallet=_wallet;\n        \n\n    }\n    function Purchase(uint _location) external payable{\n        require(msg.value>minimumWei);\n        require(ValidLocations[_location]);\n        emit Donated(_location,msg.sender,msg.value);\n        \n        Wallet.transfer(msg.value);\n    }\n\n\n    function setWallet(address payable w) public  onlyOwner{\n          Wallet=w;\n    }\n\n     function setMiniumum(uint _value) public  onlyOwner{\n         minimumWei=_value;\n    }\n\n\n\n\n}",
  "sourcePath": "/home/john/Documents/Code/Hackathons/MFH/Dapp/Ethereum/contracts/purchaseContract.sol",
  "compiler": {
    "name": "solc",
    "version": "0.5.13+commit.5b0b510c.Linux.g++"
  },
  "schemaVersion": "3.0.5",
  "updatedAt": "2020-04-05T17:16:19.849Z",
  "devdoc": {
    "methods": {
      "isOwner()": {
        "details": "Returns true if the caller is the current owner."
      },
      "owner()": {
        "details": "Returns the address of the current owner."
      },
      "renounceOwnership()": {
        "details": "Leaves the contract without owner. It will not be possible to call `onlyOwner` functions anymore. Can only be called by the current owner.     * NOTE: Renouncing ownership will leave the contract without an owner, thereby removing any functionality that is only available to the owner."
      },
      "transferOwnership(address)": {
        "details": "Transfers ownership of the contract to a new account (`newOwner`). Can only be called by the current owner."
      }
    }
  },
  "userdoc": {
    "methods": {}
  }
}